:020000040800F2
:1000000000000220ED0C0008D10C0008D30C000801
:10001000D50C0008D70C0008D90C0008000000001F
:10002000000000000000000000000000DB0C0008E1
:10003000DD0C000800000000DF0C0008E10C0008E7
:100040003D0D00083D0D00083D0D00083D0D000868
:100050003D0D00083D0D00083D0D00083D0D000858
:100060003D0D00083D0D00083D0D00083D0D000848
:100070003D0D00083D0D00083D0D00083D0D000838
:100080003D0D00083D0D00083D0D00083D0D000828
:100090003D0D00083D0D00083D0D00083D0D000818
:1000A0003D0D00083D0D00083D0D00083D0D000808
:1000B0003D0D00083D0D00083D0D00083D0D0008F8
:1000C0003D0D00083D0D00083D0D00083D0D0008E8
:1000D0003D0D00083D0D00083D0D00083D0D0008D8
:1000E0003D0D00083D0D00083D0D00083D0D0008C8
:1000F0003D0D00083D0D00083D0D00083D0D0008B8
:100100003D0D00083D0D00083D0D00083D0D0008A7
:100110003D0D00083D0D00083D0D00083D0D000897
:100120003D0D00083D0D00083D0D00083D0D000887
:100130003D0D00083D0D00083D0D00083D0D000877
:100140003D0D00083D0D00083D0D00083D0D000867
:100150003D0D00083D0D00083D0D00083D0D000857
:100160003D0D00083D0D00083D0D00083D0D000847
:100170003D0D00083D0D00083D0D00080000000089
:080180003D0D00083D0D0008D3
:1001C00010B5054C237833B9044B13B10448AFF391
:1001D00000800123237010BD3C04002000000000BB
:1001E000D81E000808B5034B1BB103490348AFF301
:1001F000008008BD0000000040040020D81E000858
:1002000053B94AB9002908BF00281CBF4FF0FF317D
:100210004FF0FF3000F074B9ADF1080C6DE904CE79
:1002200000F006F8DDF804E0DDE9022304B07047D1
:100230002DE9F047089E0D4604468846002B4DD117
:100240008A42944668D9B2FA82F252B101FA02F3B4
:10025000C2F1200120FA01F10CFA02FC41EA030884
:1002600094404FEA1C45210CB8FBF5FE1FFA8CF7B1
:1002700005FB1E8341EA03430EFB07F199420BD9AC
:100280001CEB03030EF1FF3080F01E81994240F217
:100290001B81AEF1020E63445B1AA4B2B3FBF5F00E
:1002A00005FB103344EA034400FB07F7A7420AD9D1
:1002B0001CEB040400F1FF3380F00881A74240F2F8
:1002C000058164440238E41B40EA0E4000211EB15F
:1002D000D4400023C6E90043BDE8F0878B4208D92B
:1002E000002E00F0EE800021C6E900050846BDE8BA
:1002F000F087B3FA83F100294AD1AB4202D382429C
:1003000000F2F980841A65EB030301209846002E61
:10031000E2D0C6E90048DFE702B9FFDEB2FA82F2B6
:10032000002A40F09180A1EB0C054FEA1C471FFA10
:100330008CFE0121B5FBF7F307FB1350250C45EAB2
:1003400000450EFB03F0A84208D91CEB050503F19C
:10035000FF3802D2A84200F2CB8043462D1AA4B245
:10036000B5FBF7F007FB105544EA05440EFB00FE11
:10037000A64508D91CEB040400F1FF3502D2A645BE
:1003800000F2BB802846A4EB0E0440EA03409EE73F
:10039000C1F120078B4022FA07FC4CEA030C20FA3B
:1003A00007F405FA01F31C43FD404FEA1C4900FA2B
:1003B00001F3B5FBF9F8200C1FFA8CFE09FB185568
:1003C00040EA054508FB0EF0A84202FA01F20BD9FB
:1003D0001CEB050508F1FF3A80F08880A84240F246
:1003E0008580A8F1020865442D1AA4B2B5FBF9F086
:1003F00009FB105544EA054500FB0EFEAE4508D941
:100400001CEB050500F1FF346CD2AE456AD9023809
:10041000654440EA0840A0FB0294A5EB0E05A54206
:10042000C846A64656D353D05EB1B3EB080265EB7F
:100430000E0505FA07F722FA01F3CD401F43C6E97E
:1004400000750021BDE8F087C2F1200320FA03F116
:100450000CFA02FC25FA03F395400D434FEA1C47C2
:100460001FFA8CFEB3FBF7F107FB11302B0C43EAAC
:10047000004301FB0EF0984204FA02F408D91CEB89
:10048000030301F1FF382FD298422DD9023963447A
:100490001B1AADB2B3FBF7F007FB103345EA034577
:1004A00000FB0EF3AB4208D91CEB050500F1FF3849
:1004B00016D2AB4214D902386544ED1A40EA014124
:1004C00038E73146304607E78646E5E61846FAE65D
:1004D0004B45A9D2B9EB020864EB0C0E0138A3E737
:1004E0004046EAE7204694E74146D1E7D0467BE71D
:1004F000023B654432E7084609E76444023842E7B4
:10050000704700BF844641EA000313F003036DD136
:10051000403A41D351F8043B40F8043B51F8043BC6
:1005200040F8043B51F8043B40F8043B51F8043BCD
:1005300040F8043B51F8043B40F8043B51F8043BBD
:1005400040F8043B51F8043B40F8043B51F8043BAD
:1005500040F8043B51F8043B40F8043B51F8043B9D
:1005600040F8043B51F8043B40F8043B51F8043B8D
:1005700040F8043B51F8043B40F8043B51F8043B7D
:1005800040F8043B51F8043B40F8043B51F8043B6D
:1005900040F8043B403ABDD2303211D351F8043B0D
:1005A00040F8043B51F8043B40F8043B51F8043B4D
:1005B00040F8043B51F8043B40F8043B103AEDD2BC
:1005C0000C3205D351F8043B40F8043B043AF9D20D
:1005D000043208D0D2071CBF11F8013B00F8013BE0
:1005E00001D30B8803806046704700BF082A13D3ED
:1005F0008B078DD010F003038AD0C3F10403D21A05
:10060000DB071CBF11F8013B00F8013B80D331F838
:10061000023B20F8023B7BE7043AD9D3013A11F8B8
:10062000013B00F8013BF9D20B7803704B78437023
:100630008B78837060467047000000000000000067
:1006400090F800F06DE9024520F007016FF0000C12
:1006500010F0070491F820F040F049804FF00004BA
:100660006FF00700D1E9002391F840F000F1080095
:1006700082FA4CF2A4FA8CF283FA4CF3A2FA8CF3CD
:100680004BBBD1E9022382FA4CF200F10800A4FA34
:100690008CF283FA4CF3A2FA8CF3E3B9D1E9042388
:1006A00082FA4CF200F10800A4FA8CF283FA4CF3BF
:1006B000A2FA8CF37BB9D1E9062301F1200182FA79
:1006C0004CF200F10800A4FA8CF283FA4CF3A2FA7F
:1006D0008CF3002BC6D0002A04BF04301A4612BA8D
:1006E000B2FA82F2FDE8024500EBD2007047D1E990
:1006F000002304F00305C4F100004FEAC50514F01F
:10070000040F91F840F00CFA05F562EA05021CBFEF
:1007100063EA050362464FF00004A9E7F0B583B031
:100720000446164B1B7823B3037843F00803037089
:10073000237843F004032370114E124D0A270097CB
:10074000012322463188284600F0F8FE052000F0FB
:1007500049FB237823F004032370009701232246EA
:100760003188284600F0EAFE052000F03BFB03B08C
:10077000F0BD037823F008030370D9E700000020E0
:10078000580400205C04002084B008B50DF1080C6A
:100790008CE80F00542261460548FFF7B3FEBDF810
:1007A0005C20044B1A80BDE8084004B0704700BFCD
:1007B0005C0400205804002070B582B030258DF80C
:1007C00007500F2000F00EFB0DF10700FFF7A6FF0A
:1007D000052000F007FB0DF10700FFF79FFF012048
:1007E00000F000FB0DF10700FFF798FF20248DF8C3
:1007F00007400DF10700FFF791FF8DF807400DF15D
:100800000700FFF78BFF80268DF807600DF10700CA
:10081000FFF784FF00248DF807400DF10700FFF774
:100820007DFF8DF807600DF10700FFF777FF8DF86A
:1008300007400DF10700FFF771FF10238DF8073017
:100840000DF10700FFF76AFF8DF807400DF1070073
:10085000FFF764FF8DF807500DF10700FFF75EFF0B
:100860008DF807400DF10700FFF758FFC0238DF802
:1008700007300DF10700FFF751FF02B070BD000017
:10088000F0B583B00446134B1B78F3B1037843F003
:1008900008030370237843F0040323700E4E0F4DBA
:1008A0000A270097012322463188284600F046FE99
:1008B000237823F004032370009701232246318814
:1008C000284600F03BFE03B0F0BD037823F0080398
:1008D0000370DFE700000020580400205C040020C3
:1008E00010B582B0044620F00F035BB243F0090359
:1008F0008DF807300DF10700FFF7C2FF240144F027
:1009000009048DF807400DF10700FFF7B9FF02B0A9
:1009100010BD38B50546002403E0285DFFF7E0FF71
:1009200001342846FFF78CFEA042F6D838BD10B53A
:1009300082B00024032900D90321272800D92720C9
:1009400001B90446012916D0022918D003291AD06A
:1009500004F0700343F080038DF807300DF10700B9
:10096000FFF78EFF24018DF807400DF10700FFF718
:1009700087FF02B010BD00F14004E4B2E4E700F1EB
:100980001404E4B2E2E75430C4B2E1E700B583B046
:1009900018238DF807300DF10700FFF771FF88234A
:1009A0008DF807300DF10700FFF76AFF03B05DF81F
:1009B00004FB000018B1044B01221A707047024B6F
:1009C00000221A70704700BF0000002000B583B0FD
:1009D00000238DF807300DF10700FFF79FFE10236D
:1009E0008DF807300DF10700FFF798FE03B05DF8B2
:1009F00004FB000070B58AB00024059406940794A7
:100A0000089409940194214B1A6B42F080021A63F6
:100A10001A6B02F080020192019A02941A6B42F062
:100A200001021A631A6B02F001020292029A039405
:100A30001A6B42F008021A631A6B02F00802039262
:100A4000039A04941A6B42F002021A631B6B03F0C0
:100A500002030493049B0E4D22464FF47041284636
:100A600000F024FB012605960694079405A9094881
:100A700000F02AFA4FF47043059306960794089401
:100A800005A9284600F020FA0AB070BD00380240DF
:100A9000000C02400000024008B50B480B4B0360FD
:100AA0000B4B436000238360C3604FF480420261BC
:100AB00043618361C361036200F062FC00B908BD59
:100AC00000F040F8FBE700BFB004002000540040F5
:100AD000A086010030B589B00023039304930593E9
:100AE000069307930268144B9A4201D009B030BDB7
:100AF00000250195114C236B43F002032363236B04
:100B000003F002030193019BC02303931223049378
:100B1000032306930423079303A9094800F0D4F99B
:100B20000295236C43F400132364236C03F4001335
:100B30000293029BDAE700BF0054004000380240F5
:100B40000004024072B6FEE700B595B030220021E5
:100B500008A801F0FFF8002303930493059306937C
:100B600007930193204A116C41F080511164126C7B
:100B700002F080520192019A02931C4B1A6842F4CF
:100B800080421A601B6803F480430293029B012396
:100B900008934FF48033099302220E924FF480039E
:100BA0000F9304231093A82111911292139308A874
:100BB00000F080FD98B90F230393022304930023D0
:100BC00005934FF4A05306934FF4805307930521E8
:100BD00003A800F0D5FF20B915B05DF804FBFFF7BE
:100BE000B1FFFFF7AFFF00BF0038024000700040C8
:100BF00000B593B000F0CAF8FFF7A6FFFFF7FAFEC2
:100C0000FFF74AFF1F4C7E231193442204F1100189
:100C10006846FFF777FC94E80F00FFF7B5FD642006
:100C200000F0E0F8FFF7C8FD4FF47A7000F0DAF852
:100C300000210846FFF77BFE1348FFF76AFE0121FB
:100C40000020FFF774FE1148FFF763FE0020FFF756
:100C5000B1FE4FF4FA6000F0C5F80120FFF7AAFEDC
:100C6000FFF7B4FE0A48FFF754FEFFF78FFE4FF47C
:100C70000041084800F020FA40F2574000F0B2F876
:100C8000F5E700BFB0040020F01E0008F81E0008C1
:100C9000FC1E0008000C024082B0002100910B4BAA
:100CA0005A6C42F480425A645A6C02F480420092B8
:100CB000009A01911A6C42F080521A641B6C03F086
:100CC00080530193019B02B0704700BF003802407F
:100CD000FEE7FEE7FEE7FEE7FEE770477047704776
:100CE00008B500F06DF808BD70470000DFF834D09B
:100CF0000D480E490E4A002302E0D458C450043374
:100D0000C4188C42F9D30B4A0B4C002301E013604A
:100D10000432A242FBD3FFF7E7FF00F0F7FFFFF733
:100D200067FF704700000220000000203C04002004
:100D3000341F00083C0400200C050020FEE70000E2
:100D400010B504460E4B18784FF47A73B3FBF0F3EA
:100D50000C4A1068B0FBF3F000F0A2F868B90F2C51
:100D600001D901200AE0002221464FF0FF3000F0B7
:100D70005FF8054B1C60002000E0012010BD00BFA3
:100D800008000020040000200C00002008B50B4BD8
:100D90001A6842F400721A601A6842F480621A609B
:100DA0001A6842F480721A60032000F02FF80F20B6
:100DB000FFF7C6FFFFF770FF002008BD003C0240B0
:100DC000034A1168034B1B780B441360704700BF44
:100DD0000405002008000020014B1868704700BF80
:100DE0000405002038B50446FFF7F6FF0546B4F1C8
:100DF000FF3F02D0044B1B781C44FFF7EDFF401B64
:100E0000A042FAD338BD00BF08000020074AD368CB
:100E100023F4E0631B041B0C000200F4E0600343B6
:100E200043F0BF6343F40033D360704700ED00E04C
:100E300000B5194BDB68C3F30223C3F1070CBCF107
:100E4000040F28BF4FF0040C03F1040EBEF1060F8F
:100E500018D9033B4FF0FF3E0EFA0CFC21EA0C01BF
:100E600099400EFA03F322EA0303194300280BDB2F
:100E70000901C9B200F1604000F5614080F800133B
:100E80005DF804FB0023E5E700F00F000901C9B29B
:100E9000024B1954F4E700BF00ED00E014ED00E050
:100EA0000138B0F1807F0BD24FF0E0235861054A42
:100EB000F02182F823100020986107221A61704700
:100EC0000120704700ED00E000230F2B00F2E480CA
:100ED00070B582B060E085685E000324B44025EA06
:100EE0000405CC68B4402C438460456825EA0205BB
:100EF0004C68C4F300129A402A4342605AE0DC086E
:100F0000083450F8246003F0070295000F22AA402D
:100F100026EA020E0A69AA4042EA0E0240F824209C
:100F20005CE0072200E0002202FA0EF22A430234BB
:100F30005A4D45F824205A4A94686FEA0C0224EA74
:100F40000C054E6816F4801F01D04CEA0405544C81
:100F5000A560E46802EA04054E6816F4001F01D09B
:100F60004CEA04054E4CE560646802EA04054E68EC
:100F700016F4003F01D04CEA0405494C6560246832
:100F800022404D6815F4803F01D04CEA0402444CE5
:100F9000226001330F2B7DD801229A400C6804EAAD
:100FA000020C32EA0404F4D14C6804F00304013C5E
:100FB000012C90D94A6802F00302032A09D0C468C0
:100FC0005D000322AA4024EA02048A68AA40224360
:100FD000C2604A6802F00302022A90D004684FEA15
:100FE000430E032202FA0EF224EA02044A6802F0D7
:100FF000030202FA0EF2224302604A6812F4403FF2
:10100000C7D000220192274A546C44F480445464AF
:10101000526C02F480420192019A9C08A51C1F4A5E
:1010200052F8255003F003024FEA820E0F2202FA13
:101030000EF225EA02051C4A90423FF474AF02F515
:10104000806290421AD002F58062904218D002F578
:101050008062904216D002F58062904214D002F570
:101060008062904212D002F58062904210D002F568
:10107000806290423FF455AF082255E7012253E7C2
:10108000022251E703224FE704224DE705224BE7F6
:10109000062249E702B070BD704700BF003801402A
:1010A000003C014000380240000002400AB181616A
:1010B0007047090481617047436901EA030221EA2C
:1010C000030141EA02418161704703685A6912F4E1
:1010D000806F01D1002070476FF480625A61002355
:1010E0000363202280F83D2080F83E30026C42F0FD
:1010F0000402026480F83C30012070472DE9F04181
:1011000007460D4690461E4624E0FFF765FE069B07
:10111000C01AB04200D8EEB900233B63202287F802
:101120003D2087F83E303A6C42F020023A6487F85E
:101130003C3001201EE03B689C6925EA040C1FFA44
:101140008CFCBCFA8CFC4FEA5C1CE04511D1B6F17A
:10115000FF3FDAD1C5F30743012BECD13B685B6954
:1011600025EA030C1FFA8CFCBCFA8CFC4FEA5C1CD1
:10117000EBE70020BDE8F0812DE9F04105460E4681
:10118000174698463DE01A6842F400721A602B68D0
:101190006FF480625A6100232B63202285F83D2082
:1011A00085F83E302A6C42F004022A6485F83C300F
:1011B000012034E0FFF710FEA0EB0800B84200D891
:1011C000FFB900232B63202285F83D2085F83E30AF
:1011D0002A6C42F020022A6485F83C3001201EE08F
:1011E0002B689C6926EA0404A4B2003C18BF0124C1
:1011F000A4B12B685A6912F4806FC4D1B7F1FF3FD4
:10120000D8D1C6F30743012BEAD12B685C6926EAE3
:101210000404A4B2003C18BF0124E9E70020BDE8A3
:10122000F0810000F0B583B004460D4616461F4617
:10123000C36A082B0DD0012B0BD013F5803F08D0CB
:10124000036B122B0AD10268136843F48073136096
:1012500004E02268136843F48073136000973346F8
:1012600000224FF001112046FFF748FF80B92369A3
:10127000B3F5804F16D1236805F0FE051D613B468E
:10128000324613492046FFF777FFF8B903B0F0BDA7
:1012900023681B6813F4807F02D04FF4007323642B
:1012A0000320F3E7EB11226803F0060343F0F00399
:1012B00013613B46324607492046FFF75DFF18B9E8
:1012C0002368EDB21D61DAE70120DFE70120DDE7E9
:1012D000020001000800010070B504460D461646E4
:1012E00023685B6913F0800F1CD12046FFF7EDFEE9
:1012F000D0B9B5F1FF3FF3D0FFF76EFD801BA842D8
:1013000001D8002DECD100232363202284F83D2056
:1013100084F83E30226C42F02002226484F83C3093
:10132000012000E0002070BD0120FCE770B50446FC
:101330000D46164623685B6913F0040F1CD1204646
:10134000FFF7C3FED0B9B5F1FF3FF3D0FFF744FD7F
:10135000801BA84201D8002DECD10023236320225A
:1013600084F83D2084F83E30226C42F02002226452
:1013700084F83C30012000E0002070BD0120FCE733
:10138000002800F0CC8070B5044690F83D30002B6A
:1013900077D0242384F83D302268136823F00103BA
:1013A00013602268136843F40043136022681368D3
:1013B00023F40043136000F099FC62685A4B9A4290
:1013C00064D85A4B98428CBF00230123002B40F075
:1013D000A8805749A1FB00318B0C25686A6822F070
:1013E0003F0242EA91426A6021680A6A22F03F02A3
:1013F00066684D4DAE424FD8013313430B622168EE
:10140000CA6922F44F4222F0FF026668464B9E42B0
:101410004CD8431E7600B3FBF6F3013340F6FC7064
:10142000034278D0C3F30B031343CB6121680B68ED
:1014300023F0C003E269206A024313430B60216872
:101440008B6823F4034323F0FF032269E06802431F
:1014500013438B602168CB6823F0FF036269A069A6
:1014600002431343CB602268136843F00103136007
:1014700000202064202384F83D30206384F83E005F
:1014800070BD80F83C30FFF725FB82E7294B98427E
:101490008CBF0023012399E74FF4967505FB03F3F6
:1014A000254DA5FB03539B090133A6E7A368BBB9F0
:1014B000451E06EB460CB5FBFCF50135C5F30B05E7
:1014C000B5FA85F56D0945BBC3B9013806EB46038E
:1014D000B0FBF3F30133C3F30B0343F40043A3E77F
:1014E000451E06EB860C0CEB8C0CB5FBFCF50135B0
:1014F000C5F30B05B5FA85F56D09E4E7013806EB90
:10150000860303EB8303B0FBF3F30133C3F30B0355
:1015100043F4404388E7042386E7012384E701205E
:1015200070470120ACE700BFA08601007F841E0049
:1015300083DE1B43FF083D00D34D62102DE9F043CD
:1015400085B004460F46914698460C9EFFF744FC32
:10155000054694F83D00C0B2202804D00227384642
:1015600005B0BDE8F0830095192301224F492046BC
:10157000FFF7C4FD002840F0928094F83C30012B26
:1015800000F08F80012384F83C3023681A6812F041
:10159000010F03D11A6842F001021A602268136831
:1015A00023F400631360212384F83D30102384F872
:1015B0003E3000232364C4F82490A4F82A80638D6D
:1015C00023853B4BE3622B46324639462046FFF7E4
:1015D00029FE0746002866D10023039323685A6931
:1015E00003929B690393039B11E0236C042B01D0AE
:1015F0000127B4E72268136843F400731360F7E728
:101600002A4631462046FFF791FE00282ED1238D31
:10161000002B36D02A4631462046FFF75DFE0028D3
:10162000E3D1626A236812781A61606A431C6362BC
:10163000618D89B2013989B26185238D013B9BB2ED
:1016400023852268516911F0040FD9D0002BD7D01F
:1016500043781361636A01336362638D9BB2013B1C
:101660009BB26385238D013B2385C9E7236C042B43
:1016700001D0012773E72268136843F400731360F5
:10168000F7E72268136843F400731360202384F89B
:101690003D30002384F83E3084F83C305FE7022779
:1016A0005DE702275BE7012759E700BF0200100052
:1016B0000000FFFF002800F0E08170B582B0044612
:1016C000036813F0010F3BD09F4B9B6803F00C03A2
:1016D000042B2CD09C4B9B6803F00C03082B21D0CF
:1016E0006368B3F5803F4FD0B3F5A02F52D0964B2F
:1016F0001A6822F480321A601A6822F480221A6072
:101700006368002B50D0FFF767FB05468E4B1B68C4
:1017100013F4003F14D1FFF75FFB401B6428F5D999
:101720000320B1E1884B5B6813F4800FD8D0864B5F
:101730001B6813F4003F03D06368002B00F09F8107
:10174000236813F0020F54D07F4B9B6813F00C0FEB
:101750003ED07D4B9B6803F00C03082B33D0E3682D
:10176000002B68D0794B01221A60FFF735FB054644
:10177000754B1B6813F0020F54D1FFF72DFB401B74
:101780000228F5D903207FE16F4A136843F48033C0
:101790001360B5E76C4B1A6842F480221A601A682D
:1017A00042F480321A60ABE7FFF716FB0546664B42
:1017B0001B6813F4003FC3D0FFF70EFB401B6428E7
:1017C000F5D9032060E1604B5B6813F4800FC6D14C
:1017D0005D4B1B6813F0020F03D0E368012B40F050
:1017E0005081594A136823F0F803216943EAC10381
:1017F0001360236813F0080F42D063696BB3534B37
:101800000122C3F8802EFFF7E7FA05464E4B5B6FC7
:1018100013F0020F34D1FFF7DFFA401B0228F5D98D
:10182000032031E1484A136823F0F803216943EAB1
:10183000C1031360DDE7454B00221A60FFF7CCFAC5
:101840000546414B1B6813F0020FD2D0FFF7C4FAD4
:10185000401B0228F5D9032016E13C4B0022C3F8B7
:10186000802EFFF7B9FA0546374B5B6F13F0020F76
:1018700006D0FFF7B1FA401B0228F5D9032003E197
:10188000236813F0040F77D02F4B1B6C13F0805F8D
:1018900033D1002301932C4B1A6C42F080521A640E
:1018A0001B6C03F080530193019B0125284B1B689F
:1018B00013F4807F23D0A368012B34D0052B38D0BC
:1018C000214B1A6F22F001021A671A6F22F00402EC
:1018D0001A67A368002B3DD0FFF77EFA06461A4B25
:1018E0001B6F13F0020F46D1FFF776FA801B41F20F
:1018F00088339842F3D90320C6E00025D6E7144A7E
:10190000136843F480731360FFF766FA0646104BC2
:101910001B6813F4807FCED1FFF75EFA801B02288C
:10192000F5D90320B0E0084A136F43F001031367B1
:10193000CFE7054B1A6F42F004021A671A6F42F0A4
:1019400001021A67C5E700BF0038024000004742A5
:1019500000700040FFF740FA0646524B1B6F13F031
:10196000020F08D0FFF738FA801B41F28833984203
:10197000F3D9032088E0EDB9A369002B00F0838040
:10198000484A926802F00C02082A51D0022B17D064
:10199000454B00221A66FFF71FFA0446414B1B68AD
:1019A00013F0007F42D0FFF717FA001B0228F5D989
:1019B000032069E03B4A136C23F080531364DBE798
:1019C000394B00221A66FFF707FA0546354B1B68AC
:1019D00013F0007F06D0FFF7FFF9401B0228F5D96E
:1019E000032051E0E369226A1343626A43EA8213E7
:1019F000A26A5208013A43EA0243E26A43EA0263F6
:101A0000284A5360284B01221A66FFF7E5F904467D
:101A1000244B1B6813F0007F06D1FFF7DDF9001B94
:101A20000228F5D903202FE000202DE000202BE034
:101A3000012B2BD01B4B5B6803F48001E2699142C0
:101A400026D103F03F02216A8A4223D1616A47F618
:101A5000C0721A40B2EB811F1ED103F44031A26A5A
:101A60005208013AB1EB024F18D103F07063E26AF9
:101A7000B3EB026F14D1002006E001207047012073
:101A800002E0012000E0002002B070BD0120FBE771
:101A90000120F9E70120F7E70120F5E70120F3E74E
:101AA0000120F1E7003802400000474208B5314B01
:101AB0009B6803F00C03042B57D0082B57D12D4BF8
:101AC0005A6802F03F025B6813F4800F2AD0294B5A
:101AD0005968C1F3881C4FEA4C11B1EB0C006EEB56
:101AE0000E0E4FEA8E1343EA90638101091A63EBED
:101AF0000E03DB0043EA5173C90011EB0C0C43F1F8
:101B00000003590200234FEA4C2041EADC51FEF762
:101B100077FB184B5B68C3F3014301335B00B0FBF9
:101B2000F3F025E0134B5968C1F3881C4FEA4C11C0
:101B3000B1EB0C006EEB0E0E4FEA8E1343EA90638E
:101B40008101091A63EB0E03DB0043EA5173C900FC
:101B500011EB0C0C43F10003990200234FEA8C2097
:101B600041EA9C51FEF74CFBD3E7034800E00348F1
:101B700008BD00BF0038024000127A000024F400C3
:101B8000002800F09B8070B50D4604464F4B1B6843
:101B900003F007038B4208D2CBB24C4A1370136890
:101BA00003F007038B4240F08B80236813F0020F91
:101BB00017D013F0040F04D0454A936843F4E05360
:101BC0009360236813F0080F04D0414A936843F4EC
:101BD000604393603E4A936823F0F003A1680B438F
:101BE0009360236813F0010F32D06368012B21D07A
:101BF0009A1E012A25D9364A126812F0020F61D0C6
:101C000033498A6822F0030213438B60FFF7E4F83C
:101C100006462F4B9B6803F00C036268B3EB820F00
:101C200016D0FFF7D9F8801B41F288339842F0D9DB
:101C3000032042E0264A126812F4003FE0D101205E
:101C40003BE0234A126812F0007FD9D1012034E032
:101C50001E4B1B6803F00703AB4207D9EAB21B4BCC
:101C60001A701B6803F00703AB422DD1236813F0F1
:101C7000040F06D0164A936823F4E053E1680B433F
:101C80009360236813F0080F07D0114A936823F478
:101C90006043216943EAC1039360FFF707FF0C4BE0
:101CA0009B68C3F303130B4AD35CD8400A4B1860FC
:101CB0000A4B1868FFF744F8002070BD01207047F8
:101CC0000120FAE70120F8E70120F6E7003C024096
:101CD00000380240041F0008040000200C0000200F
:101CE000014B1868704700BF0400002008B5FFF7DB
:101CF000F7FF044B9B68C3F38223034AD35CD840AD
:101D000008BD00BF00380240141F000870B50D4E1A
:101D10000D4D761BB61006D0002455F8043B013457
:101D20009847A642F9D1094E094D761B00F0D4F828
:101D3000B61006D0002455F8043B01349847A6425B
:101D4000F9D170BD281F0008281F0008301F0008A7
:101D5000281F0008830730B548D0541E002A3FD002
:101D6000CAB2034601E0013C3AD303F8012B9D07B8
:101D7000F9D1032C2DD9CDB245EA05250F2C45EA22
:101D8000054536D9A4F1100222F00F0C03F1200E04
:101D9000E6444FEA121C03F1100242E9045542E9FD
:101DA000025510327245F8D10CF1010214F00C0FFB
:101DB00003EB021204F00F0C13D0ACF1040323F078
:101DC00003030433134442F8045B9342FBD10CF049
:101DD00003042CB1CAB21C4403F8012B9C42FBD172
:101DE00030BD64461346002CF4D1F9E7034614468F
:101DF000BFE71A46A446E0E7024B13B1024800F0E1
:101E000005B8704700000000191E000800230146B5
:101E10001A46184600F01AB838B5084B084D5B1B37
:101E20009C1007D0043B1D44013C55F804399847E9
:101E3000002CF9D1BDE8384000F054B8341F000838
:101E4000301F0008704700BF704700BF2DE9F04702
:101E5000DFF87CA00646DAF8000098460F46914667
:101E6000FFF7F0FF1B4B1B68D3F8484124B36568AC
:101E70001F2D26DC5EB96B1C0235DAF800006360AA
:101E800044F82570FFF7E0FF0020BDE8F08704EB81
:101E900085010123C1F88890D4F88821AB401A430A
:101EA000022EC4F88821C1F80881E4D1D4F88C212D
:101EB0001343C4F88C31DEE703F5A674C3F8484138
:101EC000D5E7DAF80000FFF7BFFF4FF0FF30DCE79F
:101ED000380400201C1F0008F8B500BFF8BC08BC7F
:101EE0009E467047F8B500BFF8BC08BC9E467047D8
:101EF00054657374000000004954000074657874E0
:101F000000000000000000000000000001020304C7
:101F10000607080900000000010203041000002069
:081F200010E3FF7F0100000047
:081F2800F91D0008E5010008A5
:041F3000C1010008E3
:101F3400010000000024F400010000001000000073
:101F440000000000FC02002064030020CC030020F9
:101F5400000000000000000000000000000000007D
:101F6400000000000000000000000000000000006D
:101F7400000000000000000000000000000000005D
:101F8400000000000000000000000000000000004D
:101F9400000000000000000000000000000000003D
:101FA400000000000000000000000000000000002D
:101FB400000000000000000000000000000000001D
:101FC400000000000000000000000000000000000D
:101FD40000000000000000000000000000000000FD
:101FE40000000000000000000100000000000000EC
:101FF4000E33CDAB34126DE6ECDE05000B000000B1
:1020040000000000000000000000000000000000CC
:1020140000000000000000000000000000000000BC
:1020240000000000000000000000000000000000AC
:10203400000000000000000000000000000000009C
:0C23640000000000000000000805002040
:0400000508000CEDF6
:00000001FF
